{
  "contractName": "VotingSystem",
  "abi": [
    {
      "anonymous": false,
      "inputs": [
        {
          "indexed": false,
          "internalType": "uint256",
          "name": "proposalId",
          "type": "uint256"
        },
        {
          "indexed": false,
          "internalType": "string",
          "name": "name",
          "type": "string"
        },
        {
          "indexed": false,
          "internalType": "string",
          "name": "description",
          "type": "string"
        },
        {
          "indexed": false,
          "internalType": "uint256",
          "name": "expirationDate",
          "type": "uint256"
        }
      ],
      "name": "ProposalCreated",
      "type": "event"
    },
    {
      "anonymous": false,
      "inputs": [
        {
          "indexed": false,
          "internalType": "uint256",
          "name": "proposalId",
          "type": "uint256"
        },
        {
          "indexed": false,
          "internalType": "bool",
          "name": "proposalPassed",
          "type": "bool"
        }
      ],
      "name": "ProposalFinalized",
      "type": "event"
    },
    {
      "anonymous": false,
      "inputs": [
        {
          "indexed": false,
          "internalType": "uint256",
          "name": "proposalId",
          "type": "uint256"
        },
        {
          "indexed": false,
          "internalType": "bool",
          "name": "inSupport",
          "type": "bool"
        }
      ],
      "name": "Voted",
      "type": "event"
    },
    {
      "inputs": [],
      "name": "proposalCount",
      "outputs": [
        {
          "internalType": "uint256",
          "name": "",
          "type": "uint256"
        }
      ],
      "stateMutability": "view",
      "type": "function"
    },
    {
      "inputs": [
        {
          "internalType": "uint256",
          "name": "",
          "type": "uint256"
        }
      ],
      "name": "proposals",
      "outputs": [
        {
          "internalType": "string",
          "name": "name",
          "type": "string"
        },
        {
          "internalType": "string",
          "name": "description",
          "type": "string"
        },
        {
          "internalType": "uint256",
          "name": "expirationDate",
          "type": "uint256"
        },
        {
          "internalType": "uint256",
          "name": "yesVotes",
          "type": "uint256"
        },
        {
          "internalType": "uint256",
          "name": "noVotes",
          "type": "uint256"
        },
        {
          "internalType": "bool",
          "name": "proposalPassed",
          "type": "bool"
        }
      ],
      "stateMutability": "view",
      "type": "function"
    },
    {
      "inputs": [
        {
          "internalType": "address",
          "name": "",
          "type": "address"
        }
      ],
      "name": "voterTokens",
      "outputs": [
        {
          "internalType": "uint256",
          "name": "",
          "type": "uint256"
        }
      ],
      "stateMutability": "view",
      "type": "function"
    },
    {
      "inputs": [],
      "name": "join",
      "outputs": [],
      "stateMutability": "nonpayable",
      "type": "function"
    },
    {
      "inputs": [
        {
          "internalType": "string",
          "name": "name",
          "type": "string"
        },
        {
          "internalType": "string",
          "name": "description",
          "type": "string"
        },
        {
          "internalType": "uint256",
          "name": "expirationDate",
          "type": "uint256"
        }
      ],
      "name": "propose",
      "outputs": [
        {
          "internalType": "uint256",
          "name": "",
          "type": "uint256"
        }
      ],
      "stateMutability": "nonpayable",
      "type": "function"
    },
    {
      "inputs": [
        {
          "internalType": "uint256",
          "name": "proposalId",
          "type": "uint256"
        },
        {
          "internalType": "bool",
          "name": "inSupport",
          "type": "bool"
        }
      ],
      "name": "vote",
      "outputs": [],
      "stateMutability": "nonpayable",
      "type": "function"
    },
    {
      "inputs": [
        {
          "internalType": "uint256",
          "name": "proposalId",
          "type": "uint256"
        }
      ],
      "name": "isProposalApproved",
      "outputs": [
        {
          "internalType": "bool",
          "name": "",
          "type": "bool"
        }
      ],
      "stateMutability": "view",
      "type": "function"
    },
    {
      "inputs": [
        {
          "internalType": "uint256",
          "name": "proposalId",
          "type": "uint256"
        }
      ],
      "name": "finalizeProposal",
      "outputs": [],
      "stateMutability": "nonpayable",
      "type": "function"
    }
  ],
  "bytecode": "0x608060405234801561001057600080fd5b50611593806100206000396000f3fe608060405234801561001057600080fd5b50600436106100885760003560e01c8063b688a3631161005b578063b688a3631461013e578063c9d27afe14610148578063da35c66414610164578063ea8ee5d01461018257610088565b8063013cf08b1461008d5780635652077c146100c25780639abcc0cc146100de578063ab43015a1461010e575b600080fd5b6100a760048036038101906100a291906109eb565b6101b2565b6040516100b996959493929190610ad2565b60405180910390f35b6100dc60048036038101906100d791906109eb565b61030b565b005b6100f860048036038101906100f391906109eb565b610466565b6040516101059190610b41565b60405180910390f35b61012860048036038101906101239190610c91565b610508565b6040516101359190610d1c565b60405180910390f35b610146610632565b005b610162600480360381019061015d9190610d63565b6106fa565b005b61016c610983565b6040516101799190610d1c565b60405180910390f35b61019c60048036038101906101979190610e01565b610989565b6040516101a99190610d1c565b60405180910390f35b60006020528060005260406000206000915090508060000180546101d590610e5d565b80601f016020809104026020016040519081016040528092919081815260200182805461020190610e5d565b801561024e5780601f106102235761010080835404028352916020019161024e565b820191906000526020600020905b81548152906001019060200180831161023157829003601f168201915b50505050509080600101805461026390610e5d565b80601f016020809104026020016040519081016040528092919081815260200182805461028f90610e5d565b80156102dc5780601f106102b1576101008083540402835291602001916102dc565b820191906000526020600020905b8154815290600101906020018083116102bf57829003601f168201915b5050505050908060020154908060030154908060040154908060050160009054906101000a900460ff16905086565b600254811061034f576040517f08c379a000000000000000000000000000000000000000000000000000000000815260040161034690610eda565b60405180910390fd5b600080600083815260200190815260200160002090508060050160009054906101000a900460ff16156103b7576040517f08c379a00000000000000000000000000000000000000000000000000000000081526004016103ae90610f46565b60405180910390fd5b6000816004015482600301546103cd9190610f95565b9050600060646046836103e09190610fc9565b6103ea919061103a565b905080836003015411156104165760018360050160006101000a81548160ff0219169083151502179055505b7fb5ac567fcf1b069e0235e4f16734625c6cf54c1b40517fd9eb85517f6e1265a7848460050160009054906101000a900460ff1660405161045892919061106b565b60405180910390a150505050565b600060025482106104ac576040517f08c379a00000000000000000000000000000000000000000000000000000000081526004016104a390610eda565b60405180910390fd5b600080600084815260200190815260200160002090506000816004015482600301546104d89190610f95565b9050600060646046836104eb9190610fc9565b6104f5919061103a565b9050808360030154119350505050919050565b600080600160003373ffffffffffffffffffffffffffffffffffffffff1673ffffffffffffffffffffffffffffffffffffffff168152602001908152602001600020541161058b576040517f08c379a0000000000000000000000000000000000000000000000000000000008152600401610582906110e0565b60405180910390fd5b6000600260008154809291906105a090611100565b91905055905060008060008381526020019081526020016000209050858160000190816105cd91906112f4565b50848160010190816105df91906112f4565b508381600201819055507f3f86606f711a448daf3ec6c75d04db9515b24b20b64a68406f971eb5a4e161878287878760405161061e94939291906113c6565b60405180910390a181925050509392505050565b6000600160003373ffffffffffffffffffffffffffffffffffffffff1673ffffffffffffffffffffffffffffffffffffffff16815260200190815260200160002054146106b4576040517f08c379a00000000000000000000000000000000000000000000000000000000081526004016106ab90611465565b60405180910390fd5b60018060003373ffffffffffffffffffffffffffffffffffffffff1673ffffffffffffffffffffffffffffffffffffffff16815260200190815260200160002081905550565b600254821061073e576040517f08c379a000000000000000000000000000000000000000000000000000000000815260040161073590610eda565b60405180910390fd5b600080600084815260200190815260200160002090506000600160003373ffffffffffffffffffffffffffffffffffffffff1673ffffffffffffffffffffffffffffffffffffffff16815260200190815260200160002054116107d6576040517f08c379a00000000000000000000000000000000000000000000000000000000081526004016107cd906110e0565b60405180910390fd5b8060060160003373ffffffffffffffffffffffffffffffffffffffff1673ffffffffffffffffffffffffffffffffffffffff16815260200190815260200160002060009054906101000a900460ff1615610865576040517f08c379a000000000000000000000000000000000000000000000000000000000815260040161085c906114d1565b60405180910390fd5b806002015442106108ab576040517f08c379a00000000000000000000000000000000000000000000000000000000081526004016108a29061153d565b60405180910390fd5b60018160060160003373ffffffffffffffffffffffffffffffffffffffff1673ffffffffffffffffffffffffffffffffffffffff16815260200190815260200160002060006101000a81548160ff021916908315150217905550811561092a5780600301600081548092919061092090611100565b9190505550610945565b80600401600081548092919061093f90611100565b91905055505b7fa63b4de27d795de0f5597f73747fac943bc2864c1ef9fa81100950198d5030b3838360405161097692919061106b565b60405180910390a1505050565b60025481565b60016020528060005260406000206000915090505481565b6000604051905090565b600080fd5b600080fd5b6000819050919050565b6109c8816109b5565b81146109d357600080fd5b50565b6000813590506109e5816109bf565b92915050565b600060208284031215610a0157610a006109ab565b5b6000610a0f848285016109d6565b91505092915050565b600081519050919050565b600082825260208201905092915050565b60005b83811015610a52578082015181840152602081019050610a37565b60008484015250505050565b6000601f19601f8301169050919050565b6000610a7a82610a18565b610a848185610a23565b9350610a94818560208601610a34565b610a9d81610a5e565b840191505092915050565b610ab1816109b5565b82525050565b60008115159050919050565b610acc81610ab7565b82525050565b600060c0820190508181036000830152610aec8189610a6f565b90508181036020830152610b008188610a6f565b9050610b0f6040830187610aa8565b610b1c6060830186610aa8565b610b296080830185610aa8565b610b3660a0830184610ac3565b979650505050505050565b6000602082019050610b566000830184610ac3565b92915050565b600080fd5b600080fd5b7f4e487b7100000000000000000000000000000000000000000000000000000000600052604160045260246000fd5b610b9e82610a5e565b810181811067ffffffffffffffff82111715610bbd57610bbc610b66565b5b80604052505050565b6000610bd06109a1565b9050610bdc8282610b95565b919050565b600067ffffffffffffffff821115610bfc57610bfb610b66565b5b610c0582610a5e565b9050602081019050919050565b82818337600083830152505050565b6000610c34610c2f84610be1565b610bc6565b905082815260208101848484011115610c5057610c4f610b61565b5b610c5b848285610c12565b509392505050565b600082601f830112610c7857610c77610b5c565b5b8135610c88848260208601610c21565b91505092915050565b600080600060608486031215610caa57610ca96109ab565b5b600084013567ffffffffffffffff811115610cc857610cc76109b0565b5b610cd486828701610c63565b935050602084013567ffffffffffffffff811115610cf557610cf46109b0565b5b610d0186828701610c63565b9250506040610d12868287016109d6565b9150509250925092565b6000602082019050610d316000830184610aa8565b92915050565b610d4081610ab7565b8114610d4b57600080fd5b50565b600081359050610d5d81610d37565b92915050565b60008060408385031215610d7a57610d796109ab565b5b6000610d88858286016109d6565b9250506020610d9985828601610d4e565b9150509250929050565b600073ffffffffffffffffffffffffffffffffffffffff82169050919050565b6000610dce82610da3565b9050919050565b610dde81610dc3565b8114610de957600080fd5b50565b600081359050610dfb81610dd5565b92915050565b600060208284031215610e1757610e166109ab565b5b6000610e2584828501610dec565b91505092915050565b7f4e487b7100000000000000000000000000000000000000000000000000000000600052602260045260246000fd5b60006002820490506001821680610e7557607f821691505b602082108103610e8857610e87610e2e565b5b50919050565b7f496e76616c69642070726f706f73616c20696400000000000000000000000000600082015250565b6000610ec4601383610a23565b9150610ecf82610e8e565b602082019050919050565b60006020820190508181036000830152610ef381610eb7565b9050919050565b7f50726f706f73616c20616c726561647920706173736564000000000000000000600082015250565b6000610f30601783610a23565b9150610f3b82610efa565b602082019050919050565b60006020820190508181036000830152610f5f81610f23565b9050919050565b7f4e487b7100000000000000000000000000000000000000000000000000000000600052601160045260246000fd5b6000610fa0826109b5565b9150610fab836109b5565b9250828201905080821115610fc357610fc2610f66565b5b92915050565b6000610fd4826109b5565b9150610fdf836109b5565b9250828202610fed816109b5565b9150828204841483151761100457611003610f66565b5b5092915050565b7f4e487b7100000000000000000000000000000000000000000000000000000000600052601260045260246000fd5b6000611045826109b5565b9150611050836109b5565b9250826110605761105f61100b565b5b828204905092915050565b60006040820190506110806000830185610aa8565b61108d6020830184610ac3565b9392505050565b7f4e6f74206120766f746572000000000000000000000000000000000000000000600082015250565b60006110ca600b83610a23565b91506110d582611094565b602082019050919050565b600060208201905081810360008301526110f9816110bd565b9050919050565b600061110b826109b5565b91507fffffffffffffffffffffffffffffffffffffffffffffffffffffffffffffffff820361113d5761113c610f66565b5b600182019050919050565b60008190508160005260206000209050919050565b60006020601f8301049050919050565b600082821b905092915050565b6000600883026111aa7fffffffffffffffffffffffffffffffffffffffffffffffffffffffffffffffff8261116d565b6111b4868361116d565b95508019841693508086168417925050509392505050565b6000819050919050565b60006111f16111ec6111e7846109b5565b6111cc565b6109b5565b9050919050565b6000819050919050565b61120b836111d6565b61121f611217826111f8565b84845461117a565b825550505050565b600090565b611234611227565b61123f818484611202565b505050565b5b818110156112635761125860008261122c565b600181019050611245565b5050565b601f8211156112a85761127981611148565b6112828461115d565b81016020851015611291578190505b6112a561129d8561115d565b830182611244565b50505b505050565b600082821c905092915050565b60006112cb600019846008026112ad565b1980831691505092915050565b60006112e483836112ba565b9150826002028217905092915050565b6112fd82610a18565b67ffffffffffffffff81111561131657611315610b66565b5b6113208254610e5d565b61132b828285611267565b600060209050601f83116001811461135e576000841561134c578287015190505b61135685826112d8565b8655506113be565b601f19841661136c86611148565b60005b828110156113945784890151825560018201915060208501945060208101905061136f565b868310156113b157848901516113ad601f8916826112ba565b8355505b6001600288020188555050505b505050505050565b60006080820190506113db6000830187610aa8565b81810360208301526113ed8186610a6f565b905081810360408301526114018185610a6f565b90506114106060830184610aa8565b95945050505050565b7f416c7265616479206a6f696e6564000000000000000000000000000000000000600082015250565b600061144f600e83610a23565b915061145a82611419565b602082019050919050565b6000602082019050818103600083015261147e81611442565b9050919050565b7f416c726561647920766f74656400000000000000000000000000000000000000600082015250565b60006114bb600d83610a23565b91506114c682611485565b602082019050919050565b600060208201905081810360008301526114ea816114ae565b9050919050565b7f50726f706f73616c206861732065787069726564000000000000000000000000600082015250565b6000611527601483610a23565b9150611532826114f1565b602082019050919050565b600060208201905081810360008301526115568161151a565b905091905056fea2646970667358221220b27add97d8efa77bdc1c5dd8554c3caffcc46332e0c3cc498d33176ea030720064736f6c63430008130033",
  "immutableReferences": {},
  "source": "// SPDX-License-Identifier: MIT\n\npragma solidity ^0.8.0;\n\ncontract VotingSystem {\n    struct Proposal {\n        string name;\n        string description;\n        uint256 expirationDate;\n        uint256 yesVotes;\n        uint256 noVotes;\n        bool proposalPassed;\n        mapping(address => bool) hasVoted;\n    }\n\n    mapping(uint256 => Proposal) public proposals;\n    mapping(address => uint256) public voterTokens;\n    uint256 public proposalCount;\n\n    event ProposalCreated(uint256 proposalId, string name, string description, uint256 expirationDate);\n    event Voted(uint256 proposalId, bool inSupport);\n    event ProposalFinalized(uint256 proposalId, bool proposalPassed);\n\n    function join() public {\n        require(voterTokens[msg.sender] == 0, \"Already joined\");\n        voterTokens[msg.sender] = 1;\n    }\n\n    function propose(string memory name, string memory description, uint256 expirationDate) public returns (uint256) {\n        require(voterTokens[msg.sender] > 0, \"Not a voter\");\n\n        uint256 proposalId = proposalCount++;\n        Proposal storage p = proposals[proposalId];\n        p.name = name;\n        p.description = description;\n        p.expirationDate = expirationDate;\n\n        emit ProposalCreated(proposalId, name, description, expirationDate);\n\n        return proposalId;\n    }\n\n    function vote(uint256 proposalId, bool inSupport) public {\n        require(proposalId < proposalCount, \"Invalid proposal id\");\n        Proposal storage p = proposals[proposalId];\n\n        require(voterTokens[msg.sender] > 0, \"Not a voter\");\n        require(!p.hasVoted[msg.sender], \"Already voted\");\n        require(block.timestamp < p.expirationDate, \"Proposal has expired\");\n\n        p.hasVoted[msg.sender] = true;\n\n        if (inSupport) {\n            p.yesVotes++;\n        } else {\n            p.noVotes++;\n        }\n\n        emit Voted(proposalId, inSupport);\n    }\n\n    function isProposalApproved(uint256 proposalId) public view returns (bool) {\n        require(proposalId < proposalCount, \"Invalid proposal id\");\n        Proposal storage p = proposals[proposalId];\n\n        uint256 totalVotes = p.yesVotes + p.noVotes;\n        uint256 threshold = totalVotes * 70 / 100;\n\n        return p.yesVotes > threshold;\n    }\n\n    function finalizeProposal(uint256 proposalId) public {\n        require(proposalId < proposalCount, \"Invalid proposal id\");\n        Proposal storage p = proposals[proposalId];\n        require(!p.proposalPassed, \"Proposal already passed\");\n\n        uint256 totalVotes = p.yesVotes + p.noVotes;\n        uint256 threshold = totalVotes * 70 / 100;\n\n        if (p.yesVotes > threshold) {\n            p.proposalPassed = true;\n        }\n\n        emit ProposalFinalized(proposalId, p.proposalPassed);\n    }\n\n}\n",
  "sourcePath": "/Users/isidro/workplace/ether-solidity/voting-app/my-app/src/contracts/VotingSystem.sol",
  "compiler": {
    "name": "solc",
    "version": "0.8.19+commit.7dd6d404.Emscripten.clang"
  },
  "schemaVersion": "3.4.13",
  "updatedAt": "2023-04-25T05:13:24.841Z",
  "devdoc": {
    "kind": "dev",
    "methods": {},
    "version": 1
  },
  "userdoc": {
    "kind": "user",
    "methods": {},
    "version": 1
  }
}